{
  "contractName": "AdsBidding",
  "abi": [
    {
      "anonymous": false,
      "inputs": [
        {
          "indexed": false,
          "internalType": "uint256",
          "name": "adsIndex",
          "type": "uint256"
        },
        {
          "indexed": false,
          "internalType": "uint256",
          "name": "newPrice",
          "type": "uint256"
        }
      ],
      "name": "BidUpdated",
      "type": "event"
    },
    {
      "anonymous": false,
      "inputs": [
        {
          "indexed": true,
          "internalType": "address",
          "name": "previousOwner",
          "type": "address"
        },
        {
          "indexed": true,
          "internalType": "address",
          "name": "newOwner",
          "type": "address"
        }
      ],
      "name": "OwnershipTransferred",
      "type": "event"
    },
    {
      "inputs": [],
      "name": "owner",
      "outputs": [
        {
          "internalType": "address",
          "name": "",
          "type": "address"
        }
      ],
      "stateMutability": "view",
      "type": "function",
      "constant": true
    },
    {
      "inputs": [],
      "name": "renounceOwnership",
      "outputs": [],
      "stateMutability": "nonpayable",
      "type": "function"
    },
    {
      "inputs": [
        {
          "internalType": "address",
          "name": "newOwner",
          "type": "address"
        }
      ],
      "name": "transferOwnership",
      "outputs": [],
      "stateMutability": "nonpayable",
      "type": "function"
    },
    {
      "stateMutability": "payable",
      "type": "receive",
      "payable": true
    },
    {
      "inputs": [
        {
          "internalType": "uint256",
          "name": "_adsIndex",
          "type": "uint256"
        },
        {
          "internalType": "uint256",
          "name": "_initialPrice",
          "type": "uint256"
        }
      ],
      "name": "setInitialBid",
      "outputs": [],
      "stateMutability": "nonpayable",
      "type": "function"
    },
    {
      "inputs": [
        {
          "internalType": "uint256",
          "name": "_adsIndex",
          "type": "uint256"
        },
        {
          "internalType": "uint256",
          "name": "_bid",
          "type": "uint256"
        }
      ],
      "name": "bid",
      "outputs": [],
      "stateMutability": "payable",
      "type": "function",
      "payable": true
    },
    {
      "inputs": [
        {
          "internalType": "address payable",
          "name": "_to",
          "type": "address"
        }
      ],
      "name": "withdrawAllTo",
      "outputs": [],
      "stateMutability": "nonpayable",
      "type": "function"
    }
  ],
  "bytecode": "0x608060405234801561001057600080fd5b5061002d61002261003260201b60201c565b61003a60201b60201c565b6100fe565b600033905090565b60008060009054906101000a900473ffffffffffffffffffffffffffffffffffffffff169050816000806101000a81548173ffffffffffffffffffffffffffffffffffffffff021916908373ffffffffffffffffffffffffffffffffffffffff1602179055508173ffffffffffffffffffffffffffffffffffffffff168173ffffffffffffffffffffffffffffffffffffffff167f8be0079c531659141344cd1fd0a4f28419497f9722a3daafe3b4186f6b6457e060405160405180910390a35050565b610a2b8061010d6000396000f3fe6080604052600436106100595760003560e01c8063309d56b614610065578063598647f81461008e578063715018a6146100aa5780638da5cb5b146100c1578063ca9add8f146100ec578063f2fde38b1461011557610060565b3661006057005b600080fd5b34801561007157600080fd5b5061008c60048036038101906100879190610740565b61013e565b005b6100a860048036038101906100a39190610740565b610267565b005b3480156100b657600080fd5b506100bf61036c565b005b3480156100cd57600080fd5b506100d66103f4565b6040516100e39190610807565b60405180910390f35b3480156100f857600080fd5b50610113600480360381019061010e9190610713565b61041d565b005b34801561012157600080fd5b5061013c600480360381019061013791906106e6565b6104e3565b005b6101466105db565b73ffffffffffffffffffffffffffffffffffffffff166101646103f4565b73ffffffffffffffffffffffffffffffffffffffff16146101ba576040517f08c379a00000000000000000000000000000000000000000000000000000000081526004016101b190610842565b60405180910390fd5b336001600084815260200190815260200160002060000160006101000a81548173ffffffffffffffffffffffffffffffffffffffff021916908373ffffffffffffffffffffffffffffffffffffffff1602179055508060016000848152602001908152602001600020600101819055507f2da2b1244600b9b93cac347d996da184a245944ea60d8e16ef8c5df5dd362816828260405161025b929190610882565b60405180910390a15050565b600160008381526020019081526020016000206001015434116102bf576040517f08c379a00000000000000000000000000000000000000000000000000000000081526004016102b690610862565b60405180910390fd5b806001600084815260200190815260200160002060010181905550336001600084815260200190815260200160002060000160006101000a81548173ffffffffffffffffffffffffffffffffffffffff021916908373ffffffffffffffffffffffffffffffffffffffff1602179055507f2da2b1244600b9b93cac347d996da184a245944ea60d8e16ef8c5df5dd3628168282604051610360929190610882565b60405180910390a15050565b6103746105db565b73ffffffffffffffffffffffffffffffffffffffff166103926103f4565b73ffffffffffffffffffffffffffffffffffffffff16146103e8576040517f08c379a00000000000000000000000000000000000000000000000000000000081526004016103df90610842565b60405180910390fd5b6103f260006105e3565b565b60008060009054906101000a900473ffffffffffffffffffffffffffffffffffffffff16905090565b6104256105db565b73ffffffffffffffffffffffffffffffffffffffff166104436103f4565b73ffffffffffffffffffffffffffffffffffffffff1614610499576040517f08c379a000000000000000000000000000000000000000000000000000000000815260040161049090610842565b60405180910390fd5b8073ffffffffffffffffffffffffffffffffffffffff166108fc479081150290604051600060405180830381858888f193505050501580156104df573d6000803e3d6000fd5b5050565b6104eb6105db565b73ffffffffffffffffffffffffffffffffffffffff166105096103f4565b73ffffffffffffffffffffffffffffffffffffffff161461055f576040517f08c379a000000000000000000000000000000000000000000000000000000000815260040161055690610842565b60405180910390fd5b600073ffffffffffffffffffffffffffffffffffffffff168173ffffffffffffffffffffffffffffffffffffffff1614156105cf576040517f08c379a00000000000000000000000000000000000000000000000000000000081526004016105c690610822565b60405180910390fd5b6105d8816105e3565b50565b600033905090565b60008060009054906101000a900473ffffffffffffffffffffffffffffffffffffffff169050816000806101000a81548173ffffffffffffffffffffffffffffffffffffffff021916908373ffffffffffffffffffffffffffffffffffffffff1602179055508173ffffffffffffffffffffffffffffffffffffffff168173ffffffffffffffffffffffffffffffffffffffff167f8be0079c531659141344cd1fd0a4f28419497f9722a3daafe3b4186f6b6457e060405160405180910390a35050565b6000813590506106b6816109b0565b92915050565b6000813590506106cb816109c7565b92915050565b6000813590506106e0816109de565b92915050565b6000602082840312156106fc576106fb61090a565b5b600061070a848285016106a7565b91505092915050565b6000602082840312156107295761072861090a565b5b6000610737848285016106bc565b91505092915050565b600080604083850312156107575761075661090a565b5b6000610765858286016106d1565b9250506020610776858286016106d1565b9150509250929050565b610789816108bc565b82525050565b600061079c6026836108ab565b91506107a78261090f565b604082019050919050565b60006107bf6020836108ab565b91506107ca8261095e565b602082019050919050565b60006107e26013836108ab565b91506107ed82610987565b602082019050919050565b61080181610900565b82525050565b600060208201905061081c6000830184610780565b92915050565b6000602082019050818103600083015261083b8161078f565b9050919050565b6000602082019050818103600083015261085b816107b2565b9050919050565b6000602082019050818103600083015261087b816107d5565b9050919050565b600060408201905061089760008301856107f8565b6108a460208301846107f8565b9392505050565b600082825260208201905092915050565b60006108c7826108e0565b9050919050565b60006108d9826108e0565b9050919050565b600073ffffffffffffffffffffffffffffffffffffffff82169050919050565b6000819050919050565b600080fd5b7f4f776e61626c653a206e6577206f776e657220697320746865207a65726f206160008201527f6464726573730000000000000000000000000000000000000000000000000000602082015250565b7f4f776e61626c653a2063616c6c6572206973206e6f7420746865206f776e6572600082015250565b7f596f75206d757374206269642068696768657200000000000000000000000000600082015250565b6109b9816108bc565b81146109c457600080fd5b50565b6109d0816108ce565b81146109db57600080fd5b50565b6109e781610900565b81146109f257600080fd5b5056fea26469706673582212205fbfb72c3f5b223d3fa2bd958254f7aef00fdddb38c13aa8206c64fa87071c2864736f6c63430008070033",
  "immutableReferences": {},
  "source": "// SPDX-License-Identifier: MIT\r\npragma solidity ^0.8.0;\r\n\r\nimport \"./Ownable.sol\";\r\nimport \"@openzeppelin/contracts/utils/math/SafeMath.sol\";\r\n\r\ncontract AdsBidding is Ownable{\r\n    struct BidDetail{\r\n        address currentBidder;\r\n        uint256 currentPrice;\r\n    }\r\n    mapping (uint256=>BidDetail) currentBid;\r\n    event BidUpdated(uint256 adsIndex,uint256 newPrice);\r\n    function setInitialBid(uint256 _adsIndex,uint256 _initialPrice) public onlyOwner{\r\n        currentBid[_adsIndex].currentBidder = msg.sender;\r\n        currentBid[_adsIndex].currentPrice = _initialPrice;\r\n        emit BidUpdated(_adsIndex, _initialPrice);\r\n    }\r\n\r\n    function bid(uint256 _adsIndex,uint256 _bid) public payable{\r\n        require(msg.value > currentBid[_adsIndex].currentPrice,\"You must bid higher\");\r\n        currentBid[_adsIndex].currentPrice = _bid;\r\n        currentBid[_adsIndex].currentBidder = msg.sender;\r\n        emit BidUpdated(_adsIndex, _bid);\r\n    }\r\n    function withdrawAllTo(address payable _to)public onlyOwner{\r\n        _to.transfer(address(this).balance);\r\n    }\r\n    receive() external payable{\r\n        \r\n    }\r\n}",
  "sourcePath": "E:\\PersonalProject\\AdsBidding\\contracts\\AdsBidding.sol",
  "compiler": {
    "name": "solc",
    "version": "0.8.7+commit.e28d00a7.Emscripten.clang"
  },
  "schemaVersion": "3.4.3",
  "updatedAt": "2021-09-22T16:19:47.811Z",
  "networkType": "ethereum",
  "devdoc": {
    "kind": "dev",
    "methods": {
      "owner()": {
        "details": "Returns the address of the current owner."
      },
      "renounceOwnership()": {
        "details": "Leaves the contract without owner. It will not be possible to call `onlyOwner` functions anymore. Can only be called by the current owner. NOTE: Renouncing ownership will leave the contract without an owner, thereby removing any functionality that is only available to the owner."
      },
      "transferOwnership(address)": {
        "details": "Transfers ownership of the contract to a new account (`newOwner`). Can only be called by the current owner."
      }
    },
    "version": 1
  },
  "userdoc": {
    "kind": "user",
    "methods": {},
    "version": 1
  }
}